:020000040800F2
:1000000048040120DD010008E5010008E7010008BF
:10001000E9010008EB010008ED0100080000000004
:10002000000000000000000000000000EF010008D8
:10003000F101000800000000F3010008210700089A
:10004000F7010008F7010008F7010008F7010008B0
:10005000F7010008F7010008F7010008F7010008A0
:10006000F7010008F7010008F7010008F701000890
:10007000F7010008F7010008F7010008F701000880
:10008000F7010008F7010008CD060008F701000895
:10009000F7010008F7010008F7010008F701000860
:1000A000F7010008F7010008F7010008F701000850
:1000B000F7010008F7010008F7010008F701000840
:1000C000F7010008F7010008F7010008F701000830
:1000D000F7010008F7010008F7010008F701000820
:1000E000F7010008F7010008F7010008F701000810
:1000F000F7010008F7010008F7010008F701000800
:10010000F7010008F7010008F7010008F7010008EF
:1001100071080008F7010008F7010008F70100085E
:10012000F7010008F7010008F7010008F7010008CF
:10013000F7010008F7010008F7010008F7010008BF
:10014000F7010008F7010008F7010008F7010008AF
:10015000F7010008F7010008F7010008F70100089F
:10016000F7010008F7010008F7010008F70100088F
:10017000F7010008F7010008F7010008000000007F
:10018000F7010008F7010008F7010008F70100086F
:10019000F7010008F7010008F7010008F70100085F
:1001A000F7010008F7010008F7010008F70100084F
:1001B000F7010008F7010008F7010008F70100083F
:1001C000F7010008F7010008DFF80CD000F05EFA34
:1001D00000480047C517000848040120064880472A
:1001E00006480047FEE7FEE7FEE7FEE7FEE7FEE71C
:1001F000FEE7FEE7FEE7FEE70D080008C90100087C
:100200002DE9FE4F804681EA0300C00F0C460090A6
:1002100021F0004123F00045B8EB0200A94105D2CE
:100220004046214690461C460B46024623F00040BD
:10023000104347D0270DC7F30A00C3F30A510290B9
:10024000401A019040286BDAC3F3130040F4801B7E
:100250000098924620B10023D2EB030A63EB0B0B0C
:1002600001985946C0F14002504600F081F9064617
:100270000D4650465946019A00F099F910EB0800D6
:100280006141002487EA115284EAE7731A4340D09F
:10029000009A62B3019A012A4FEA075215DC001B4B
:1002A00061EB02014FF0004202EA0752CDE9004241
:1002B000001C41F5801132462B4600F099F903B03D
:1002C000BDE8F08F40462146F9E7001B61EB0201D3
:1002D000001C41F5801300185B412018A2F500179F
:1002E00047EB030140EAD570B6196D4111E06D0886
:1002F0004FEA360645EAC0754FEA0752001B61EB2C
:100300000201001C41F5801149084FEA3000001934
:10031000514132462B4603B0BDE8F04F00F059B9C9
:100320000098012240000023D0EB020263EBE0734F
:10033000009821464FEAE074B8EB000061EB04013D
:10034000E9E783F000435BE781F0004158E72DE9DE
:10035000FE4F81EA030404F0004421F000410094C0
:100360004FF0000B23F0004350EA01045ED052EA44
:1003700003045BD0C3F30A54C1F30A552C44A4F21E
:10038000F3340194A0FB0254C1F3130141F4801132
:10039000C3F3130343F4801301FB024400FB034E39
:1003A000840A970A44EA815447EA8357A4FB076802
:1003B00002958D0A05FB07854FEA932C04FB0C542C
:1003C0002705029D4FEA065847EA1637B5EB0805A0
:1003D0006EEB070C870E920E47EA811742EA8312F2
:1003E000A7FB0201B6EB0B0164EB00042B0D43EA03
:1003F0000C335E1844EB1C50DA465146E7FB020111
:10040000C5F313044FEA0B3343EA14534FEA0432A3
:10041000019C43EA0603A4F10C040294009CCDE97C
:1004200000B400F0E5F803B0BDE8F08F002001460D
:10043000F9E72DE9F04D81EA030404F0004B21F0C7
:10044000004514464FF0000A23F0004150EA05022F
:1004500020D054EA01021DD0C5F30A570246C5F365
:100460001303C1F31300C1F30A5640F4801543F49B
:100470008013A7EB0608101BD64608F2FD3873EB75
:10048000050002D308F1010801E092185B41B8F1C0
:10049000000F03DA00200146BDE8F08D00204FF484
:1004A0008011064684460EE0171B73EB050705D343
:1004B000121B63EB050306434CEA010C49084FEAA3
:1004C000300092185B4150EA0107EDD152EA030077
:1004D00012D082EA040083EA0501084305D0101B0C
:1004E000AB4106D20122002306E000224FF0004378
:1004F00002E06FF0010253101AEB06004CEB0851BA
:1005000010EB0A0041EB0B01BDE8F04D00F061B8C3
:100510000EB5C10F80EAE0700844CA07002140F21E
:1005200033438DE80E000A460B4600F061F803B035
:1005300000BD70B5C1F30A5201F000450024C1F3BB
:10054000130140F2FF3341F480119A4201DA002096
:1005500070BD40F233439A42A2F2334203DC52426E
:1005600000F015F800E090402C43F1D0404270BDFF
:10057000202A04DB203A00FA02F100207047914063
:10058000C2F1200320FA03F3194390407047202A58
:1005900004DB203A21FA02F00021704721FA02F32D
:1005A000D040C2F120029140084319467047202AEA
:1005B00006DBCB17203A41FA02F043EAE07306E08B
:1005C00041FA02F3D040C2F120029140084319469B
:1005D000704710B5141E73F1000408DA401C41F195
:1005E000000192185B411A4301D120F0010010BDB7
:1005F0002DE9F04D92469B4611B1B1FA81F202E02D
:10060000B0FA80F220329046FFF7B2FF04460F4660
:1006100040EA0A0041EA0B0153465A46084313D008
:10062000114653EA010019D0C8F140025046FFF7C5
:10063000AEFF05460E46504659464246FFF798FF24
:10064000084305D0012004E020463946BDE8F08D7E
:100650000020054346EAE0762C4337430A986305B9
:10066000E40AA0EB08000022FD0A44EA47540A30DD
:1006700002D500200146E9E7010510196941DDE9CD
:10068000084500196941BDE8F04DA2E7064C074D49
:1006900006E0E06840F0010394E807009847103452
:1006A000AC42F6D3FFF794FD501E0008701E000800
:1006B0000EB540F2334102910021CDE900110A4606
:1006C0000B46FFF795FF03B000BD0000104800681F
:1006D000092806D10E481830006800B20D4908807C
:1006E00014E00B4800680E2806D10948183000684D
:1006F00000B20949088009E0054800680F2805D1C3
:1007000003481830006800B20449088070470000B0
:1007100034220140000001200200012004000120D9
:1007200008480088401C00B2064908800846B0F915
:100730000000012804DD0020088001200249087023
:1007400070470000220001201200012070B5002037
:100750000022022300240221274D2D6805F00C0001
:1007600020B1042806D0082834D107E0234D244EB8
:10077000356033E0234D224E35602FE01E4D2D1F96
:100780002D68C5F380541C4D2D1F2D6805F03F01C9
:1007900054B11C4DB5FBF1F5174E361F3668C6F344
:1007A000881605FB06F209E0144DB5FBF1F5124E73
:1007B000361F3668C6F3881605FB06F20E4D2D1F50
:1007C0002D68C5F301456D1C6B00B2FBF3F50C4EB3
:1007D000356003E0094D0A4E356000BF00BF064D8D
:1007E0002D68C5F30315084E705D054D2D68C54095
:1007F000034E356070BD0000083802400024F4004C
:100800003C00012040787D01141D00081448006858
:1008100040F47000124908601248006840F001007E
:100820001049086000200F49083108600D48006831
:100830000D4908400B4908600C48091D0860081F55
:10084000006820F48020091F0860002005490C3151
:1008500008604FF00060024980390860704700006E
:1008600088ED00E000380240FFFFF6FE1030002463
:100870000548006800F0200028B1034808300068EF
:1008800000B20249088070471C4C0040140001204F
:100890001048008840F6C41110FB01F040F6FF71CB
:1008A00090FBF1F000B20C4908800C48406940F020
:1008B00002000A4948610A2000E0401C0649B1F9DB
:1008C00000108842F9DB0548406900F00100034947
:1008D000486170470200012024000120000002400E
:1008E00000211EE0425C134B1A701A461278124B1C
:1008F0001A601A46126842F480721A601A46126828
:1009000042F400721A60002200E0521C0B4B9A4223
:10091000FBDB094A126840F6FF531A40064B1A6087
:10092000491C044A12783A2ADCD13121014A11705B
:10093000704700000600012014080240A086010054
:100940004FF47A7190FBF1F109B2104A11806421E1
:1009500090FBF1F10A2291FBF2F302FB131109B2B1
:100960000B4A1180642190FBF1F201FB12010A2273
:1009700091FBF2F109B2074A11800A2190FBF1F2D2
:1009800001FB120109B2044A118070470A000120DC
:100990000C0001200E000120100001200649086013
:1009A00000BF05490C39096801F08001024A0C3A80
:1009B00011600029F5D07047284C00400D490860AF
:1009C000096840F6FF6211400A4A11601146096841
:1009D00041F400711160002100E0491C42F21072E4
:1009E0009142FADB0349096840F6FF521140014A7F
:1009F0001160704714080240002809DB00F01F0254
:100A0000012191404209920002F1E022C2F8001156
:100A1000704700000C490860096841F480710A4A77
:100A200011601146096841F400711160002100E075
:100A3000491C064A9142FBDB0349096840F6FF5214
:100A40001140014A1160704714080240A08601005D
:100A50000748006840F080400649C1F8080200BF1E
:100A600003480838006800F002000128F8D07047F9
:100A7000082201400020014000B5F448B0F9000010
:100A800040F67461884217DDF048B0F9000040F686
:100A90003C71884210DA3120FFF7BCFF0120EC499D
:100AA000EC4AB2F9002021F81200EA480088401C04
:100AB00000B2E8490880C8E1E448B0F9000040F617
:100AC000AC51884217DDE148B0F9000040F64261C0
:100AD000884210DA3220FFF79DFF0220DC49DD4A10
:100AE000B2F9002021F81200DA480088401C00B258
:100AF000D8490880A9E1D548B0F9000040F6E441A2
:100B0000884217DDD148B0F9000040F648518842CC
:100B100010DA3320FFF77EFF0321CD48CD4AB2F92A
:100B2000002020F81210CB480088401C00B2C949B0
:100B300008808AE1C548B0F9000040F6D631884205
:100B400017DDC248B0F9000040F6EA31884210DAF9
:100B50004120FFF75FFF0A21BD48BE4AB2F90020DD
:100B600020F81210BB480088401C00B2B949088028
:100B70006BE1B648B0F9000040F65431884217DD09
:100B8000B248B0F9000040F6B831884210DA34209B
:100B9000FFF740FF0421AE48AE4AB2F9002020F82A
:100BA0001210AC480088401C00B2AA4908804CE1F1
:100BB000A648B0F90000B0F52F6F17DDA348B0F9D3
:100BC000000040F65431884210DA3520FFF722FF4A
:100BD00005219F489F4AB2F9002020F812109D4835
:100BE0000088401C00B29B4908802EE19748B0F96C
:100BF000000040F67821884216DD9448B0F90000E4
:100C0000B0F5296F10DC3620FFF704FF062090496D
:100C1000904AB2F9002021F812008E480088401C4A
:100C200000B28C49088010E18848B0F9000040F615
:100C3000BA11884217DD8548B0F9000040F6C611A8
:100C4000884210DA4220FFF7E5FE0B208049814AF6
:100C5000B2F9002021F812007E480088401C00B242
:100C60007C490880F1E07948B0F9000040F6241191
:100C7000884216DD7548B0F90000B0F5166F10DA3D
:100C80003720FFF7C7FE07207149724AB2F90020EA
:100C900021F812006F480088401C00B26D4908809E
:100CA000D3E06A48B0F9000040F6F201884217DD4F
:100CB0006648B0F9000040F60611884210DA382084
:100CC000FFF7A8FE08206249624AB2F9002021F825
:100CD000120060480088401C00B25E490880B4E001
:100CE0005A48B0F9000040F68E01884217DD574897
:100CF000B0F9000040F6A201884210DA3920FFF76F
:100D000089FE09215248534AB2F9002020F81210F6
:100D100050480088401C00B24E49088095E04B487E
:100D2000B0F9000040F60C01884216DD4748B0F9E2
:100D30000000B0F5026F10DA4320FFF76BFE0C20C5
:100D40004349444AB2F9002021F812004148008882
:100D5000401C00B23F49088077E03C48B0F90000F1
:100D6000B0F5FA6F17DD3948B0F9000040F2EE71C6
:100D7000884210DA2A20FFF74DFE0E203449354A0A
:100D8000B2F9002021F8120032480088401C00B25D
:100D90003049088059E02D48B0F9000040F29471C4
:100DA000884217DD2948B0F9000040F2B27188424C
:100DB00010DA3020FFF72EFE00202549254AB2F92F
:100DC000002021F8120023480088401C00B221496D
:100DD00008803AE01D48B0F90000B0F5EC6F17DB71
:100DE0001A48B0F9000040F26771884210DA2320F7
:100DF000FFF710FE0F211648164AB2F9002020F81E
:100E0000121014480088401C00B2124908801CE0EF
:100E10000E48B0F9000040F2F46188420DDD0B4845
:100E2000B0F9000040F20371884206DA4420FFF76F
:100E3000F1FD01200849087007E00448B0F90000FE
:100E4000322802DA2020FFF7E5FD00BD0000012076
:100E5000160001201E0001202000012003B401988B
:100E60004100009850EAC12018BF04204A0D18BF65
:100E700040F0010040F2FF72B2EB515F08BF40F05A
:100E80000200012808BF052002B0704700000000E2
:100E900010B52F499FED2C1B2DED020B84B005984A
:100EA00020F000408842DCBF00209DED040B32DDC5
:100EB0002849884209D1049840B94FF0010000F058
:100EC0006FFC00F03DFC06B010BD05DB9DED040B92
:100ED00000F02AFC06B010BD68469DED040B00F042
:100EE0003BF810F0030011D0012818D09DED021B33
:100EF0009DED000B02281AD000F04AFA51EC100BBD
:100F000081F0004106B041EC100B10BD9DED021BBD
:100F10009DED000B012000F06FFB06B010BD9DEDB4
:100F2000021B9DED000B00F033FA06B010BD01204E
:100F300000F062FB51EC100B81F0004106B041EC77
:100F4000100B10BD000000000000000000000000B9
:100F5000FB21E93F0000F07F2DE9F14F04462DED24
:100F6000020B2DED088B8AB09FEDE70B80ED020B95
:100F7000139EE74826F0004585420ADC9DED120BE2
:100F8000002084ED000B0AB0BDEC088B03B0BDE877
:100F9000F08FE0489FEDE0AB9FEDE1BBA84247DD5D
:100FA000E14F9FEDE39B9FEDE48B9DED120B53EC26
:100FB0001A2B51EC100B002E1CDDFFF7C2F941EC8F
:100FC000100BBD4208D053EC1B2B51EC100BFFF75C
:100FD000B8F9C4E900010BE053EC192B51EC100BEC
:100FE000FFF7AFF953EC182BFFF7ABF9C4E9000199
:100FF0000120C8E7FFF704F941EC100BBD4208D00F
:1010000053EC1B2B51EC100BFFF7FAF8C4E900016D
:101010000BE053EC192B51EC100BFFF7F1F853ECEC
:10102000182BFFF7EDF8C4E900014FF0FF30AAE7F5
:10103000C348A84279DB9DED120B51EC100B00F078
:10104000B5FB41EC180B9FEDC00B53EC102BFFF7D9
:101050007EF99FEDBF1B53EC112BFFF7D1F8FFF783
:1010600068FA0746FFF754FA41EC190B53EC1A2BB8
:10107000FFF76DF953EC182BFFF766F941EC180BED
:1010800053EC1B2B51EC190BFFF761F9DFF8C8A2E9
:1010900041EC100B4FEA15580125FA4453EC102B84
:1010A00051EC180BFFF74DF9032DC4E900013DD0B9
:1010B000C1F30A5005EB4511A8EB0000113981423C
:1010C00034DA0AEB051BB0EE48AA9BED000BF0EEFC
:1010D00068AA53EC102B51EC190BFFF738F941ECCF
:1010E0001B0B51EC1A0B53EC1B2BFFF72AF941ECAD
:1010F000180B51EC1A0B53EC182BFFF722F953EC99
:101100001B2BFFF71EF99BED020B41EC1A0B53EC66
:10111000102B51EC190BFFF71AF953EC1A2BFFF7B0
:1011200010F941EC100B6D1CB8E70EE0002EA8BFC3
:101130003846BFF628AF94ED000B51EC100B81F050
:101140000041C4E9000178421DE7C6F3130040F4F2
:10115000801EC6F30A50A0F2F530471100F01F05BB
:10116000C5F12000DDF848B00890002006900790F7
:101170000520EC467949002D07EB0002794408BFB1
:1011800051F8221009D051F8223001EB8201AB4016
:101190004A68089922FA01F11943A1FB0E26A1FB26
:1011A0000B131A449A4234BF0123002303EB0608B1
:1011B0000CEB8003D3E901A60E448E4234BF01211B
:1011C000002192448A4411B1924502D903E092452C
:1011D00001D2012100E00021C3E901A641444CF8FD
:1011E0002010011EA0F10100C4DC029800F10050A3
:1011F000850F0298DDE903678000DDF81480FFF7B2
:1012000087F941EC1A0B3046FFF752FA9FED541B59
:1012100053EC112BFFF79BF841EC1B0B3846FFF703
:1012200047FA9FED511B53EC112BFFF790F841EC5F
:10123000180B4046FFF73CFA9FED4D1B53EC112B6A
:10124000FFF785F841EC190B51EC180B53EC192BF7
:10125000FEF7D6FF53EC1B2BFEF7D2FF53EC1A2BF5
:10126000FEF7CEFFCDE90801002008909DED080BA8
:1012700053EC1A2B51EC100BFFF763F853EC1B2BBC
:10128000FFF75FF853EC182BFFF75BF853EC192BC3
:10129000FFF75AF89FED381B53EC112BFFF757F867
:1012A0009FED370B41EC180B53EC102B9DED080B09
:1012B00051EC100BFFF74BF853EC182BFEF7A0FF87
:1012C0009FED310B41EC180B53EC102B9DED080BEF
:1012D00051EC100BFFF73BF853EC182BFEF790FF87
:1012E00041EC100B139810F0004F06D06D4251ECFA
:1012F000100B81F0004141EC100B284684ED000BEF
:1013000041E60000000000000000000000000000B6
:10131000FB21E93F7CD9024000004054FB21F93F0A
:101320003163621A61B4D03DFB21F93F0000000037
:101330000000601A61B4D03D7370032E8A19A33B7C
:10134000FB2139410000000083C8C96D305FE43FD4
:10135000000000000000E03FC20C0000100C000084
:10136000000000000000103E000000000000103CE3
:10137000000000000000103A182D4454FB21F93DF4
:101380003326A611460B113C00000054FB21F93D09
:1013900010B52DED040B2DED088B82B0B0EE419A07
:1013A000F0EE619A0B9820F000449FED4BABB4F146
:1013B000795F11DA9DED0A0B51EC100BFFF7B9F8CC
:1013C000002801BFB0EE4A0AF0EE6A0A02B0BDEC96
:1013D000088B04BF04B010BD9DED0A0B53EC102B1D
:1013E00051EC100BFEF7B3FF41EC180B3C48062103
:1013F000B0EE480AF0EE680A784400F081F853EC49
:10140000182B51EC100BFEF7A2FF9DED0A0B41ECDF
:101410001B0B53EC192B51EC100BFEF798FF41EC12
:10142000190B53EC1B2B51EC180BFEF790FF53ECF0
:10143000192BFEF786FF9FED2C0B41EC190B53EC9B
:10144000102B51EC180BFEF782FF41EC100B2848D3
:10145000844210DA53EC192B51EC100BFEF771FF9C
:1014600053EC1A2BFEF770FF41EC100B02B0BDECF1
:10147000088B04B010BD1F48A042BCBF9FED1E1BCF
:101480008DED001B06DBA4F50010019000200090FC
:101490009DED001B51EC100B53EC112BFEF751FF8F
:1014A0009DED000B41EC180B53EC102B51EC1A0B7B
:1014B000FEF747FF41EC1A0B53EC192B51EC180BBC
:1014C000FEF73FFF53EC1A2BFEF73EFF41EC100BEB
:1014D000CCE7000000000000000000000000F03F2A
:1014E0003409000000000000000000000000E03FA0
:1014F0003333D33F0000E93F000000000000D23F3B
:1015000070B504462DED028B4D1E00EBC500B0EE0C
:10151000408AF0EE608A90ED000B35F0060017D09F
:1015200053EC182B51EC100BFEF711FF41EC100B94
:101530006D1E04EBC50090ED001B51EC100B53EC3D
:10154000112BFEF75DFE41EC100B35F00600E7D1E4
:10155000022D36D0042D1CD0062D1CBFBDEC028BF5
:1015600070BD53EC182B51EC100BFEF7F0FE94ED10
:101570000A1B53EC112BFEF743FE53EC182BFEF71E
:10158000E6FE94ED081B53EC112BFEF739FE41ECFF
:10159000100B53EC182B51EC100BFEF7D8FE94ED0A
:1015A000061B53EC112BFEF72BFE53EC182BFEF70A
:1015B000CEFE94ED040B53EC102BFEF721FE41EC14
:1015C000100B53EC182B51EC100BFEF7C0FE94EDF2
:1015D000021B53EC112BFEF713FE53EC182BFEF7F6
:1015E000B6FE94ED001B53EC112BFEF709FEBDEC8B
:1015F000028B41EC100B70BD31B504462DED040B90
:101600002DED0A8BB0EE41BAF0EE61BA0B989DED6C
:101610000A0B20F00040B0F1795F0DDA51EC100BAD
:10162000FFF71CFC042808BF00F09AF89DED0A0B98
:10163000BDEC0A8B05B030BD53EC102B51EC100BF8
:10164000FEF785FE41EC180B9DED0A0B53EC182BB1
:1016500051EC100BFEF77BFE41EC190B2C48B0EE61
:10166000480AF0EE680A05217844FFF749FF9FED2C
:101670002ACBB0EE40AAF0EE60AA9CB353EC1C2B30
:1016800051EC190BFEF763FE41EC1C0B53EC1A2BCB
:1016900051EC190BFEF75BFE9FED210B41EC190B92
:1016A00053EC102B51EC1B0BFEF751FE53EC192B96
:1016B000FEF747FE53EC182BFEF749FE53EC1B2BAD
:1016C000FEF73FFE53EC1C2BFEF73BFE9DED0A1B85
:1016D00053EC112BFEF738FEBDEC0A8B05B041EC44
:1016E000100B30BDFFE753EC1A2B51EC180BFEF733
:1016F0002EFE53EC1C2BFEF783FD53EC192BFEF74B
:1017000026FE9DED0A1B53EC112BFEF779FDE3E756
:10171000BC07000000000000495555555555C5BF90
:10172000000000000000E03F10B553EC102B51EC1E
:10173000100BFEF765FD41EC100B10BD0000000022
:101740009FED050B10B553EC102B51EC100BFEF771
:1017500070FE41EC100B10BD000000000000000006
:101760009FED050B10B553EC102B51EC100BFEF751
:10177000EEFD41EC100B10BD000000000000001059
:1017800002E008C8121F08C1002AFAD1704770474A
:10179000002001E001C1121F002AFBD170470000A8
:1017A00001490860704700004000012082B0CDE987
:1017B000000121F0004001909DED000B02B051ECC2
:1017C000100B70472DED108B82B0FE48006840F082
:1017D0002700FC490860FC48006840F206310843D5
:1017E000F94908600846406848600846806840F04B
:1017F000040088600846C06840F00400C860082003
:101800000862F2480068F2490843F0490860081D80
:101810000068091D0860081D0068EE490843EB498F
:1018200008310860081D0068EA490843E7490C319F
:1018300008604FF40041E5484162E748006840F421
:101840007C60E5490860DF481430006840F480603F
:10185000DC4914310860E148006840F02000E049AC
:10186000C1F804020846D0F8080240F48060C1F8CC
:1018700008020846D0F8080240F00100C1F808024A
:101880001220FFF7B9F8FEF761FFD64800684FF461
:101890007A72B0FBF2F1481EB0F1807F00D31BE0FA
:1018A000481E4FF0E022506150170F22002804DB41
:1018B00013071C0ECC4B1C5406E013071D0ECB4B1C
:1018C00000F00F04241F1D5500BF00204FF0E02240
:1018D00090610720106100BFBA481030006840F0E6
:1018E0000050B84910310860C148006840F001005C
:1018F000BF490860B3481030006840F40020B14987
:101900001031086040F28360BA490860B9480C3869
:10191000006840F02C00B7490C39086008460068A0
:1019200040F0010008603420FFF766F8B248007804
:10193000FFF744F8B1480078FFF740F8B048007866
:10194000FFF73CF8AF480078FFF738F8AE4800786A
:10195000FFF734F8AD480078FFF730F8ACA0FEF799
:10196000BFFFAE480078FFF729F8ADA0FEF7B8FF3B
:10197000002000E0401CAD498842FBDB9E48007817
:10198000FFF71CF89D480078FFF718F8A8A0FEF7AD
:10199000A7FF4820FFF702F8AFE1FEF779FFA6485E
:1019A0000088401C00B2A44908800846B0F9000035
:1019B000642801DD00200880A048B0F90000FEF78F
:1019C000A7FD41EC190B9C48B0F90000FEF7A0FD03
:1019D00041EC1D0B9A48B0F90000FEF799FD41EC6F
:1019E0001F0B9FED980B53EC102BFEF7B0FC41EC56
:1019F0001E0B53EC1D2BFEF7AAFC41EC1C0B9FEDBC
:101A0000930B53EC102BFEF714FD41EC1B0BB0EEC7
:101A10004B0AF0EE6B0AFFF73BFAB0EE40AAF0EE8D
:101A200060AA53EC192B51EC1A0BFEF790FC41EC19
:101A3000180B9FED880B53EC102BFEF7E1FBCDE963
:101A400000019DED000B51EC100BFEF772FD00B292
:101A5000824908800846B0F90000654908310860ED
:101A60007E48B0F90000FEF76BFF3020FEF796FFCE
:101A70002C20FEF793FF7A4909783031C8B2FEF77F
:101A80008DFF784909783031C8B2FEF787FF764973
:101A900009783031C8B2FEF781FF744909783031D6
:101AA000C8B2FEF77BFF2C20FEF778FF3420FEF74C
:101AB00075FF3020FEF772FF3020FEF76FFF3020F9
:101AC000FEF76CFF0A20FEF769FF694800780128DD
:101AD00076D109204149303108608620FEF76EFF3B
:101AE000FEF7B6FFFEF7C8FF4C480078FEF766FF2A
:101AF0006048B0F90000FEF723FF5B4909783031F8
:101B0000C8B2FEF787FF594909783031C8B2FEF7ED
:101B100081FF0E203249C1F83402FEF799FF3B499C
:101B200009780B31C8B2FEF749FF5348B0F90000FD
:101B3000FEF706FF4A4909783031C8B2FEF76AFF5E
:101B4000484909783031C8B2FEF764FF4649097840
:101B50003031C8B2FEF75EFF444909783031C8B26F
:101B6000FEF758FF0F201D4930310860FEF770FF67
:101B70002A4909780B31C8B2FEF720FF3F48B0F977
:101B80000000FEF7DDFE364909783031C8B2FEF7B5
:101B900041FF344909783031C8B2FEF73BFF324982
:101BA00009783031C8B2FEF735FF30490978303155
:101BB000C8B2FEF72FFF32480078012801D161E05A
:101BC0009BE097E0303802400000024000080240ED
:101BD000555585005555050000140240042201406A
:101BE000002001403C00012000E400E018ED00E08E
:101BF000007400400C4C00402E0001202F000120FA
:101C00003000012034000120310001203A00012081
:101C10005465636C61646F3A000000003B00012072
:101C2000416E616C6F6769636F3A000040420F005C
:101C30004C657472613A00002800012026000120E2
:101C40002C000120A7E8482EFF21194000000000C9
:101C5000000059400000000000FC9F402A000120C5
:101C60000A0001200C0001200E00012010000120BC
:101C7000120001201E0001200200012004000120AA
:101C80002000012000201D4908801D490978C91D38
:101C9000C8B2FEF793FE1B4800884FF47A7110FB20
:101CA00001F01849498801EBC10202EB011100EB78
:101CB00081001449898801EB810100EB4100114941
:101CC000C988084400B2104908800E4909783031AB
:101CD000C8B2FEF79FFE0B4989783031C8B2FEF7D3
:101CE00099FE084909793031C8B2FEF793FE002009
:101CF000064908700020064908704EE61E000120C3
:101D00003A000120160001202C00012020000120B3
:101D10001200012000000000000000000102030486
:101D2000060708090000000001020304000000008B
:101D30004C5555555555A53F7751C1166CC156BFE9
:101D40009015CB19A001FA3EAD529C804F7E92BEF9
:101D5000C4B1B4BD9EEE213ED43888BEE9FAA8BD18
:101D600000004054FB21F93F3163621A61B4D03D59
:101D70000000601A61B4D03D7370032E8A19A33B32
:101D80000000002E8A19A33BC14920259A837B3984
:101D900000000000000000006E83F9A22915444EE7
:101DA000D15727FCC0DD34F5999562DB4190433C67
:101DB000AB6351FE61C5BBDE3A6E24B7E0D24D4243
:101DC000EA2E49061C92D1091CEB1DFE3EA729B143
:101DD000F53582E88444BB2E26709CE9417E5FB4D1
:101DE00039D69139F43953838B5F849C3B28F9BDF4
:101DF000FF97F81F0F9805DE8B112FEF1F6D0A5A02
:101E0000CF7E366DB709CB27663F464F2DEA5F9EE2
:101E1000C7BA27757BF1E5EBF739073DEA92528A9D
:101E2000B15FFB6B085D8D1FA6F810111111813F8A
:101E3000D561C119A0012ABF7DFEB157E31DC73E80
:101E4000EB9C2B8AE6E55ABE7CD5CF5A3AD9E53DC4
:101E5000701E0008000001204400000080170008E8
:101E6000B41E00084400012004040000901700087C
:101E70000000000000003100000000000000000031
:101E80000000000000000000000000000000000052
:101E9000000000000000FF07000000000100010238
:101EA0003C06040F0E081C18141080C00024F40017
:041EB000000000002E
:04000005080001DD11
:00000001FF
